:100000000C9434000C9449000C9449000C94490061
:100010000C9449000C9449000C9449000C9449003C
:100020000C9449000C9449000C9449000C9449002C
:100030000C9449000C9449000C9449000C9449001C
:100040000C9449000C9449000C9449000C9449000C
:100050000C9449000C9449000C9449000C944900FC
:100060000C9449000C94490011241FBECFEFD8E036
:10007000DEBFCDBF11E0A0E0B1E0E0EBF1E002C0F7
:1000800005900D92A434B107D9F70E94B5000C94E5
:10009000D6000C9400003AB12BB124B145B10897B9
:1000A0001CF4832F90E00895822FFCCF0F931F93B1
:1000B000CF93DF93EC018B010E944B00FC01CC0F2E
:1000C000DD1F80819181C85DDE4F21E030E0088036
:1000D00002C0220F331F0A94E2F7012B49F0282BAC
:1000E000392B31832083DF91CF911F910F91089598
:1000F0002095309528233923F4CFCF93DF93EC015B
:100100000E944B00CC0FDD1FC45FDE4F41E050E08A
:10011000088002C0440F551F0A94E2F7FC012281B7
:100120003381242B352B33832283DF91CF910895A4
:10013000CF93DF93EC010E944B00CC0FDD1FC45F17
:10014000DE4F21E030E0088002C0220F331F0A9406
:10015000E2F720953095FC01428153812423352319
:1001600033832283DF91CF91089561E070E087E0CF
:1001700090E00E94560087E090E00E947D002FEF03
:1001800083ED90E3215080409040E1F700C00000F3
:1001900087E090E00E9498002FEF83ED90E32150DC
:1001A00080409040E1F700C00000E5CFF894FFCF19
:1001B000000001000200030004000500000001002F
:1001C0000200030004000500060007000000010013
:1001D000020003000400050000000100020003000B
:1001E00004000500060007000000010002000300F3
:0401F0000400050002
:00000001FF
